:100000000C9434000C9440000C943E000C943E0080
:100010000C943E000C943E000C943E000C943E0068
:100020000C943E000C943E000C943E000C943E0058
:100030000C943E000C943E000C943E000C943E0048
:100040000C943E000C943E000C943E000C943E0038
:100050000C943E000C943E000C943E000C943E0028
:100060000C943E000C943E0011241FBECFEFD4E050
:10007000DEBFCDBF0E943C010C9465020C940000D1
:100080001FB6E2E0F2E078E10CC030E13A95F1F021
:1000900049B14470D9F700000000000000000000E2
:1000A000000024D0000049B10000447041937A95CB
:1000B00039F035E13A9551F049B14470D9F3E5CFC3
:1000C000E2E0F2E0589A589876801EC03FE0371B75
:1000D00041F4E2E0F2E031963081332309F00FC0C1
:1000E00009C033941FBE31E03CBB189533E03A950C
:1000F000F1F70895EAE9F1E078E187D0F2CFE2EB99
:10010000F1E070E582D0EDCFEAE1F2E0339631E044
:10011000983019F09430D9F034C030E1392131935E
:1001200030E23921319330E43921319330E83921FB
:10013000319330E83A213193319330E23A213193CF
:1001400030E13A21319330E43A21319333C030E148
:100150003921319330E23921319330E83A2131931A
:1001600030E43921319330E839213193319330E251
:100170003A21319330E13A21319330E43A213193FD
:1001800019C030E13921319330E43921319330E421
:100190003A21319330E83921319330E83A213193D3
:1001A000319330E23A21319330E13A21319330E218
:1001B0003921319338E03921319334E039213193B9
:1001C00031E03921319332E039213193EAE1F2E033
:1001D000882051F03FEF00A201A202A203A204A2D4
:1001E00005A206A237A309C03FEF30A301A202A2D5
:1001F00003A204A205A206A237A3772019F070E596
:1002000004D06FCF70E401D06CCF31913323C9F4A7
:100210000000529A4FE04A95F1F70000529842E0F0
:100220004A95F1F77A9589F7000000000000000078
:1002300000000000529A44E04A95F1F700005298FD
:100240000895529A44E04A95F1F700000000529850
:100250004CE04A95F1F7000000007A95B1F60000F5
:1002600000000000000000000000529A44E04A959F
:10027000F1F700005298089500240FEE08B900E34A
:1002800007B90FEF05B900E004B90AEF0BB901E0B7
:100290000AB902E00093690001E00DBB209A28989A
:1002A00021982298299A2A9A00000000000002E072
:1002B00023B0209420224ED0942D9C70042D0071E8
:1002C00011F002E0202E042D05290078602EDAD0EE
:1002D000A6D0B1D0F0D0882478948DD0222009F017
:1002E0000EC054D0052D0073003369F5042D027241
:1002F000023249F50FEF802E9924AA241DC02AD07E
:10030000052D00780038F9F4042D027A023A29F418
:100310000FEF802E9924AA2408C08824042D087A7F
:10032000083A99F400E39924A02E51D013D0442028
:10033000E1F75520D1F707C04AD028D04420A9F7CB
:10034000552099F700C0882400C0942CA52C3FD0DC
:100350003324C3CF1F93449A36D035D0449833D03A
:1003600021D0662041F0022F0078069510E42F7707
:10037000210F2F7B202B00E80223502E022F007428
:10038000000F2F73202B422E1F9108951F93449A24
:100390001AD019D0449817D005D0422E03D0522E2F
:1003A0001F91089518E02227220F459806B1009565
:1003B0000870069506950695202B05D0459A03D022
:1003C0001A9591F708950EE10A95F1F708951F9394
:1003D00017E60FEF00000000000000000000000022
:1003E00000000A95B9F700000000000000001A950F
:1003F00081F71F9108951F9310E20FEF0000000096
:10040000000000000000000000000A95B9F700009D
:100410000000000000001A9581F71F91089531E057
:10042000EAE9F1E034963083339630833B963083AB
:1004300036963083089531E0E2EBF1E03896308370
:100440003896308336963193308332963193319398
:1004500031933083329630833296308337963083AF
:100460003296319331933193319331933083359672
:10047000308332963193308335963083339631937F
:10048000308308954427EAE9F1E038E141933A9551
:10049000E9F7E2EBF1E030E541933A95E9F7EAE577
:1004A000F2E030E141933A95E9F7EAE5F2E00FEF47
:1004B000078307870895EAE1F2E0C2EBD1E000E4A8
:0E04C000499141930A95E1F70895F894FFCF12
:1004CE00536E6573325769692076657273696F6E04
:1004DE0020312E352C312028432920323030372D33
:1004EE0032303136205261706861656C2041737311
:1004FE00656E6174203C7261706840726170686EE6
:10050E0065742E6E65743E52656C6561736564200C
:10051E00756E646572207468652047504C2E2053AA
:10052E00656520687474703A2F2F7777772E726115
:10053E0070686E65742E6E65742F656C656374726B
:10054E006F6E697175652F78327769692F696E6480
:0A055E0065785F656E2E706870000E
:00000001FF
